:100000000C94CF000C94EC000C94EC000C94EC00DD
:100010000C94EC000C94EC000C94EC000C94EC00B0
:100020000C94EC000C9473010C94EC000C94EC0018
:100030000C94EC000C94EC000C94EC000C94EC0090
:100040000C94EC000C94EC000C9481020C94EC00E9
:100050000C94EC000C94EC000C94EC000C94EC0070
:100060000C94EC000C94EC004E414E494E4954590E
:10007000494E46CDCCCC3D0AD7233C17B7D1387773
:10008000CC2B329595E6241FB14F0A000020410089
:1000900000C84200401C4620BCBE4CCA1B0E5AAED3
:1000A000C59D7400407A10F35A00A0724E180900E2
:1000B00010A5D4E80000E87648170000E40B5402CD
:1000C0000000CA9A3B000000E1F505000080969808
:1000D00000000040420F000000A086010000001058
:1000E0002700000000E8030000000064000000009A
:1000F000000A00000000000100000000002C76D87B
:1001000088DC674F0823DFC1DFAE59E1B1B796E560
:10011000E3E453C63AE651997696E8E6C28426EBC4
:10012000898C9B62ED407C6FFCEFBC9C9F40F2BAD7
:10013000A56FA5F490055A2AF75C936B6CF9676D6F
:10014000C11BFCE0E40D47FEF520E6B500D0ED90C4
:100150002E0300943577050080841E080000204E91
:100160000A000000C80C333333330F986E1283112A
:1001700041EF8D2114893BE65516CFFEE6DB18D101
:10018000844B381BF77C1D901DA4BBE424203284D3
:10019000725E228100C9F124ECA1E53D2700112403
:1001A0001FBECFEFD8E0DEBFCDBF15E0A0E0B1E0CD
:1001B000E8EFFEE102C005900D92AC37B107D9F728
:1001C00016E0ACE7B5E001C01D92AB33B107E1F733
:1001D0000E9411010C947A0F0C940000FC01680F2E
:1001E000791F8FEF9FEFE617F707D1F021913327A3
:1001F00027FD3095322F22278227932728E030E0F1
:10020000AC01440F551F97FF06C0CA01A1E28A271F
:10021000A0E19A2701C0CA012150310989F7E3CF33
:100220000895C0901501D0901601E12CF12CCC0C52
:10023000DD1CEE1CFF1CA6E6B3E0A70196010E94A0
:10024000310620E6822E2AEE922EA12CB12CA50199
:1002500094010E943C063093ED052093EC05ACEB35
:10026000B2E0A70196010E943106A50194010E9407
:100270003C063093EB052093EA0580E094E09093F0
:1002800016018093150185E395E09093E80580932E
:10029000E705539A83E28093B00081E08093B10038
:1002A0008093700080917A00866080937A008091BC
:1002B0007C00806C80937C0080917A0080688093C1
:1002C0007A0088E18093C10086E08093C20010929A
:1002D000C50087E68093C4008091C1008068809348
:1002E000C1007894FFCF1F920F920FB60F92112486
:1002F0002F933F934F935F936F938F939F93AF93FE
:10030000BF93CF93DF93EF93FF938091F105882301
:1003100009F4E5C080911201909113010197909327
:10032000130180931201892B09F0A9C08091F40573
:100330008F5F8093F4052091E7053091E8053093B5
:10034000130120931201883008F474C01092F40550
:10035000E091F205F091F305EB50FA4F9081209176
:10036000EF0530913605330F330F3D5F5091EE05A9
:100370008091F00540913505440F440F4D5FA7E390
:10038000B5E0E7E1F5E0C5E5D5E06D9196130AC06B
:10039000213029F08081880F880F8D5F03C051E0E4
:1003A000832F20E0903279F09A3069F068819613BB
:1003B0000AC0222329F08081880F880F8D5F03C037
:1003C000842F51E021E03196219665E0A535B607EE
:1003D000E1F62093EF058093F0055093EE05513040
:1003E00061F09093C6008091F2059091F30501961B
:1003F0009093F3058093F20502C01092EE05809170
:10040000E90590E02091F2053091F30528173907AE
:1004100088F01092E9051092F4051092F3051092FD
:10042000F20581E090E09093130180931201109205
:10043000F10555C08091F40547E0481B81E090E04C
:10044000042E02C0880F991F0A94E2F72091F0054C
:1004500030E08223932302C0959587954A95E2F771
:10046000019729F48091EC059091ED0504C08091ED
:10047000EA059091EB05909336068093350620911E
:100480003506309136068091370690913806820FF6
:10049000931F909338068093370620911501309171
:1004A00016018217930760F0892F869586958093B1
:1004B00037061092380680911401819580931401BB
:1004C000E0913706F0913806E95EFE4F8081909109
:1004D0001401899F802D112480588093B400FF91CE
:1004E000EF91DF91CF91BF91AF919F918F916F91DC
:1004F0005F914F913F912F910F900FBE0F901F90E2
:1005000018951F920F920FB60F9211248F929F92FF
:10051000AF92BF92CF92DF92EF92FF920F931F9311
:100520002F933F934F935F936F937F938F939F93FB
:10053000AF93BF93EF93FF93CF93DF93CDB7DEB726
:100540002597DEBFCDBF8091F105813009F467C3E7
:10055000A1E8B5E0E0E8F5E08D91819385E0EF3822
:10056000F807D1F78091C60080938F058C3231F463
:1005700090917E059F5F90937E0506C0843221F4A2
:1005800010927E0510927F0590917F0591111EC0FB
:1005900090918A05943209F037C390918B05973476
:1005A00009F032C390918C05903509F02DC39091DC
:1005B0008D05973409F028C390918E05973409F082
:1005C00023C3813409F020C381E0F1C0913061F58B
:1005D0008C3209F019C380917E05823009F014C372
:1005E0001092CD0500917D05112707FD10958FE034
:1005F00090E07C01E01AF10A0F3011059CF4F8013B
:10060000E058FA4F808180939705A70167E975E06C
:100610008DEC95E00E940C080F5F1F4F91E0E91AE6
:10062000F108EACF82E0C3C0923061F58C3209F064
:10063000EBC280917E05833009F0E6C21092AC05D2
:1006400000917D05112707FD10958FE090E07C015A
:10065000E01AF10A0F3011059CF4F801E058FA4F46
:10066000808180939705A70167E975E08CEA95E0A2
:100670000E940C080F5F1F4F81E0E81AF108EACFD3
:1006800083E095C0933079F48C3209F0BDC21091AB
:100690007E05143009F0B8C241E050E06EE875E024
:1006A0008CEB95E03EC0943061F58C3209F0ACC221
:1006B00080917E05853009F0A7C21092BD0500919A
:1006C0007D05112707FD10958FE090E07C01E01A71
:1006D000F10A0F3011059CF4F801E058FA4F8081BF
:1006E00080939705A70167E975E08DEB95E00E947F
:1006F0000C080F5F1F4F91E0E91AF108EACF85E07F
:1007000056C0953099F48C3209F07EC210917E0566
:10071000163009F079C241E050E06EE875E08BEAEE
:1007200095E00E941C0810937F056EC2963061F51B
:100730008C3209F069C280917E058A3009F064C26A
:1007400010929B0500917D05112707FD10958FE004
:1007500090E07C01E01AF10A0F3011059CF4F801D9
:10076000E058FA4F808180939705A70167E975E00B
:100770008BE995E00E940C080F5F1F4F81E0E81A9B
:10078000F108EACF87E013C09730A1F48C3209F06A
:100790003BC280917E058B3009F036C241E050E0CB
:1007A0006EE875E08AE995E00E941C0888E0809375
:1007B0007F052AC2983009F027C21092E5051092F1
:1007C000E1051092E2051092E3051092E405109203
:1007D000DD051092DE051092DF051092E005109104
:1007E000AD0510538091AC05880F8056982F990F56
:1007F000990F890F180F1093E6058EEA95E00E9475
:1008000008084B015C01612F772767FD7095872FE2
:10081000972F0E945B076B017C0120E030E040E7EE
:1008200052E4C501B4010E94F1069B01AC01C7016D
:10083000B6010E948D066093E1057093E2058093F6
:10084000E3059093E4051091BF0510538091BD0519
:10085000805394E6899F100D11248091BE05880F66
:100860008056982F990F990F890F180F1093E5054F
:1008700080EC95E00E9408084B015C01612F77270E
:1008800067FD7095872F972F0E945B076B017C0196
:1008900020E030E040E752E4C501B4010E94F106D7
:1008A0009B01AC01C701B6010E948D066093DD0576
:1008B0007093DE058093DF059093E0052091BC05E1
:1008C000233589F40091E1051091E2052091E305BB
:1008D0003091E40530580093E1051093E205209330
:1008E000E3053093E4052091AB05273559F4DC018D
:1008F000CB01B0588093DD059093DE05A093DF0512
:10090000B093E0056091E1057091E2058091E30507
:100910009091E4050CEA15E025E048E00E94E70725
:100920006091DD057091DE058091DF059091E00515
:100930000DEB15E025E048E00E94E70780917C0080
:10094000807F80937C0080917A00806480937A001D
:1009500080917A0086FDFCCF80917800909179009B
:100960009F938F9383E795E09F938F93CE0101969A
:100970007C019F938F930E9436080F900F900F90E9
:100980000F900F900F9080917C0540E450E0811112
:100990000FC067E071E085EF95E00E941C0841E020
:1009A00050E060E171E085EF95E00E940C0806C020
:1009B00060E171E085EF95E00E941C0849E050E09D
:1009C0006CEA75E085EF95E00E940C0841E050E08C
:1009D00060E171E085EF95E00E940C084AE050E08C
:1009E0006DEB75E085EF95E00E940C0841E050E06A
:1009F00060E171E085EF95E00E940C0848E050E06E
:100A00006BE975E085EF95E00E940C0841E050E04D
:100A100060E171E085EF95E00E940C0846E050E04F
:100A20006DEC75E085EF95E00E940C0841E050E028
:100A300060E171E085EF95E00E940C0844E050E031
:100A4000B70185EF95E00E940C0841E050E060E1BD
:100A500071E085EF95E00E940C0860E470E085EF9E
:100A600095E00E942B08BC0185EF95E00E94EE0006
:100A700090939105809390058091900590919105B8
:100A80009F938F9386E795E09F938F9382E995E0FC
:100A90009F938F930E94360840E450E060E071E03D
:100AA00085EF95E00E941C0841E050E06EE071E0A7
:100AB00085EF95E00E940C0841E050E060E171E0B4
:100AC00085EF95E00E940C0810917C050F900F9027
:100AD0000F900F900F900F90111108C046E050E05A
:100AE00067E071E085EF95E00E940C0841E050E07E
:100AF00060E171E085EF95E00E940C0849E050E06C
:100B00006CEA75E085EF95E00E940C0841E050E04A
:100B100060E171E085EF95E00E940C084AE050E04A
:100B20006DEB75E085EF95E00E940C0841E050E028
:100B300060E171E085EF95E00E940C0840E150E033
:100B40006BE975E085EF95E00E940C0841E050E00C
:100B500060E171E085EF95E00E940C0846E050E00E
:100B60006DEC75E085EF95E00E940C0841E050E0E7
:100B700060E171E085EF95E00E940C0844E050E0F0
:100B8000B70185EF95E00E940C0841E050E060E17C
:100B900071E085EF95E00E940C0844E050E062E9C6
:100BA00075E085EF95E00E940C0841E050E060E1BF
:100BB00071E085EF95E00E940C0841E050E06EE0A6
:100BC00071E085EF95E00E940C0841E050E06EE096
:100BD00071E085EF95E00E940C0860E470E085EF1D
:100BE00095E00E942B088093E90510927E051092F3
:100BF0007F051F5F11161CF010937C0502C0109238
:100C00007C0581E08093F10580918F058C3211F491
:100C10008FE003C080917D05815080937D050F900A
:100C20000F900F900F900F90DF91CF91FF91EF9168
:100C3000BF91AF919F918F917F916F915F914F91F4
:100C40003F912F911F910F91FF90EF90DF90CF90E8
:100C5000BF90AF909F908F900F900FBE0F901F90FE
:100C600018950E945B06A59F900DB49F900DA49FC0
:100C7000800D911D11240895052E97FB1EF40094FC
:100C80000E94530657FD07D00E946A0607FC03D056
:100C90004EF40C94530650954095309521953F4F56
:100CA0004F4F5F4F089590958095709561957F4F58
:100CB0008F4F9F4F0895A29FB001B39FC001A39F84
:100CC000700D811D1124911DB29F700D811D112485
:100CD000911D0895A1E21A2EAA1BBB1BFD010DC098
:100CE000AA1FBB1FEE1FFF1FA217B307E407F507DC
:100CF00020F0A21BB30BE40BF50B661F771F881FB8
:100D0000991F1A9469F760957095809590959B014D
:100D1000AC01BD01CF0108955058BB27AA270ED0C2
:100D20001CC10DD130F012D120F031F49F3F11F4ED
:100D30001EF402C10EF4E095E7FBF8C0E92F1ED1C6
:100D400080F3BA17620773078407950718F071F4E8
:100D50009EF536C10EF4E0950B2EBA2FA02D0B0197
:100D6000B90190010C01CA01A0011124FF27591BF0
:100D700099F0593F50F4503E68F11A16F040A22FF6
:100D8000232F342F4427585FF3CF46953795279567
:100D9000A795F0405395C9F77EF41F16BA0B620B66
:100DA000730B840BBAF09150A1F0FF0FBB1F661FAD
:100DB000771F881FC2F70EC0BA0F621F731F841FF0
:100DC00048F4879577956795B795F7959E3F08F016
:100DD000B3CF9395880F08F09927EE0F97958795D5
:100DE00008950CD0BAC0B2D040F0A9D030F021F4B0
:100DF0005F3F19F09BC05111E4C09EC0BFD098F373
:100E00009923C9F35523B1F3951B550BBB27AA278B
:100E100062177307840738F09F5F5F4F220F331FFD
:100E2000441FAA1FA9F333D00E2E3AF0E0E830D0C9
:100E300091505040E695001CCAF729D0FE2F27D0CC
:100E4000660F771F881FBB1F261737074807AB079A
:100E5000B0E809F0BB0B802DBF01FF2793585F4F0F
:100E60002AF09E3F510568F061C0ABC05F3FECF3D4
:100E7000983EDCF3869577956795B795F7959F5FD4
:100E8000C9F7880F911D9695879597F90895E1E028
:100E9000660F771F881FBB1F621773078407BA0787
:100EA00020F0621B730B840BBA0BEE1F88F7E095E2
:100EB0000895E89409C097FB3EF49095809570954D
:100EC00061957F4F8F4F9F4F9923A9F0F92F96E996
:100ED000BB279395F695879577956795B795F1110B
:100EE000F8CFFAF4BB0F11F460FF1BC06F5F7F4FA8
:100EF0008F4F9F4F16C0882311F096E911C07723BA
:100F000021F09EE8872F762F05C0662371F096E8C2
:100F1000862F70E060E02AF09A95660F771F881F91
:100F2000DAF7880F9695879597F9089597F99F674F
:100F300080E870E060E008959FEF80EC0895002461
:100F40000A941616170618060906089500240A942E
:100F500012161306140605060895092E0394000CB4
:100F600011F4882352F0BB0F40F4BF2B11F460FF43
:100F700004C06F5F7F4F8F4F9F4F089557FD90586C
:100F8000440F551F59F05F3F71F04795880F97FB4D
:100F9000991F61F09F3F79F0879508951216130607
:100FA0001406551FF2CF4695F1DF08C01616170636
:100FB0001806991FF1CF869571056105089408956B
:100FC000E894BB2766277727CB0197F90895EF921E
:100FD0000F931F93CF93DF93E80147FD02C034E0E6
:100FE00001C034E1E42FFF27E7FDF095F7FF03C0D0
:100FF000F195E195F109E32E022F2E2FAE010E940B
:101000002B0ACE01DF91CF911F910F91EF900895A0
:10101000662777270C94B90BFB01DC010D900020AB
:10102000E9F711974150504028F0019000200D92AF
:10103000C9F708951C920895FB01DC01415050400E
:1010400048F001900D920020C9F701C01D92415057
:101050005040E0F70895FC0161507040019001108C
:10106000D8F7809590958E0F9F1F0895AEE0B0E061
:10107000ECE3F8E00C94510F0D891E8986E08C8317
:101080001A8309838FEF9FE79E838D83AE01475EAE
:101090005F4F6F89788DCE0101960E9459082F818C
:1010A0003885F801E20FF31F10822E96E4E00C94CD
:1010B0006D0FACE0B0E0EFE5F8E00C94430F7C017D
:1010C0006B018A01FC0117821682838181FFBDC1F9
:1010D000CE0101964C01F7019381F60193FD8591B4
:1010E00093FF81916F01882309F4ABC1853239F4F4
:1010F00093FD859193FF81916F01853229F4B701AA
:1011000090E00E941F0EE7CF512C312C20E02032BE
:10111000A0F48B3269F030F4803259F0833269F4F4
:1011200020612CC08D3239F0803339F4216026C023
:101130002260246023C0286021C027FD27C030ED35
:10114000380F3A3078F426FF06C0FAE05F9E300D83
:101150001124532E13C08AE0389E300D1124332EF3
:1011600020620CC08E3221F426FD6BC1206406C0C3
:101170008C3611F4206802C0883641F4F60193FDE4
:10118000859193FF81916F018111C1CF982F9F7D30
:101190009554933028F40C5F1F4FFFE3F9830DC083
:1011A000833631F0833771F0833509F05BC022C09C
:1011B000F801808189830E5F1F4F44244394512C92
:1011C000540115C03801F2E06F0E711CF801A080C7
:1011D000B18026FF03C0652D70E002C06FEF7FEF86
:1011E000C5012C870E942B082C0183012C852F77A9
:1011F000222E17C03801F2E06F0E711CF801A0809A
:10120000B18026FF03C0652D70E002C06FEF7FEF55
:10121000C5012C870E94140E2C012C852068222EDB
:10122000830123FC1BC0832D90E048165906B0F4BF
:10123000B70180E290E00E941F0E3A94F4CFF501CE
:1012400027FC859127FE81915F01B70190E00E9404
:101250001F0E31103A94F1E04F1A51084114510415
:1012600071F7E5C0843611F0893639F5F80127FFAA
:1012700007C060817181828193810C5F1F4F08C01C
:1012800060817181882777FD8095982F0E5F1F4FB1
:101290002F76722E97FF09C0909580957095619575
:1012A0007F4F8F4F9F4F2068722E2AE030E0A401BD
:1012B0000E94570EA82EA81844C0853729F42F7E07
:1012C000B22E2AE030E025C0F22FF97FBF2E8F36F4
:1012D000C1F018F4883579F0B4C0803719F0883738
:1012E00021F0AFC02F2F2061B22EB4FE0DC08B2D88
:1012F0008460B82E09C024FF0AC09F2F9660B92EC3
:1013000006C028E030E005C020E130E002C020E166
:1013100032E0F801B7FE07C060817181828193815C
:101320000C5F1F4F06C06081718180E090E00E5F0E
:101330001F4FA4010E94570EA82EA818FB2DFF775F
:101340007F2E76FE0BC0372D3E7FA51450F474FE21
:101350000AC072FC08C0372D3E7E05C0BA2C372D5E
:1013600003C0BA2C01C0B52C34FF0DC0FE01EA0D3C
:10137000F11D8081803311F4397E09C032FF06C02F
:10138000B394B39404C0832F867809F0B39433FDEB
:1013900013C030FF06C05A2CB31418F4530C5B185A
:1013A000B32CB31468F4B70180E290E03C870E944C
:1013B0001F0EB3943C85F5CFB31410F43B1801C055
:1013C000312C34FF12C0B70180E390E03C870E94CB
:1013D0001F0E3C8532FF17C031FD03C088E790E047
:1013E00002C088E590E0B7010CC0832F867859F0E1
:1013F00031FF02C08BE201C080E237FD8DE2B70110
:1014000090E00E941F0EA51438F4B70180E390E02D
:101410000E941F0E5A94F7CFAA94F401EA0DF11D11
:101420008081B70190E00E941F0EA110F5CF3320FC
:1014300009F451CEB70180E290E00E941F0E3A9469
:10144000F6CFF7018681978102C08FEF9FEF2C9630
:10145000E2E10C945F0F4F925F926F927F929F92A6
:10146000AF92BF92CF92DF92EF92FF920F931F93B2
:10147000CF93DF93CDB7DEB729970FB6F894DEBFD1
:101480000FBECDBF6A01122FB02E2BE3201720F024
:10149000FF24F394F00E02C0BCE3FB2E0F2D27E0D7
:1014A000AE014F5F5F4F0E941C0DAC018981982FE8
:1014B0009970913031F0E1FC06C0E0FE06C090E288
:1014C00005C09DE203C09BE201C090E0EE2DE071FB
:1014D00083FF3CC0911102C083E001C084E081170A
:1014E00018F4212F281B01C020E0E1110BC0F601E8
:1014F000822F30E2882319F031938150FBCFC20E46
:10150000D11C20E0992329F0D6019C93F601319655
:101510006F01C6010396E2FE0AC03EE4D6013C9389
:1015200041E411964C93119712963C9306C03EE607
:10153000F601308341E641833283FC01322F40E2E1
:10154000332309F442C041933150FACF82FF44C0A3
:10155000911102C083E001C084E0811718F4212FAB
:10156000281B01C020E0E1110BC0F601822F30E200
:10157000882319F031938150FBCFC20ED11C20E09B
:10158000992329F0D6019C93F60131966F01C6018B
:101590000396E2FE0BC039E4D6013C933EE411967B
:1015A0003C93119736E412963C9307C039E6F60156
:1015B00030833EE6318336E63283FC01322F40E24F
:1015C000332319F041933150FBCFFC01E20FF11DA1
:1015D00010828EEF9FEFB7C0F1E0911101C0F0E0F3
:1015E0006F2F70E01416150624F49A012F5F3F4FF9
:1015F00002C021E030E0260F371FBB2029F06B2D01
:1016000070E06F5F7F4F02C060E070E0260F371F11
:10161000612F70E0261737071CF4121B212F01C021
:1016200020E03E2D387159F4D601322F60E2332389
:1016300019F06D933150FBCFC20ED11C20E0FF2377
:1016400031F0D6019C93B6016F5F7F4F6B01E111C2
:101650000BC0F601922F30E3992319F0319391508A
:10166000FBCFC20ED11C20E09F2D940F3A81782F22
:101670007071A72E84FF03C0313309F491501916FD
:1016800024F4993018F098E001C091E0E42F852F00
:1016900057FF02C0E0E080E06E2F782FE0E0F0E03E
:1016A000AEE29A2E3A01691A71082A01461A570ABF
:1016B0000B2D10E01195019511096F3F8FEF780701
:1016C00029F4D6019C92C60101966C014617570772
:1016D00084F0661677066CF47F01E40CF51CA1E03B
:1016E000B0E0AC0FBD1FEA0EFB1ED7011196BC90F7
:1016F00002C090E3B92E615071093196C60101967E
:101700007C016017710724F0D601BC926C01D5CF23
:101710006417750741F4363320F4353321F4A110F2
:1017200002C081E3B82EF601B082F701822F90E269
:10173000882319F091938150FBCFF701E20FF11D3F
:10174000108280E090E029960FB6F894DEBF0FBEBD
:10175000CDBFDF91CF911F910F91FF90EF90DF9060
:10176000CF90BF90AF909F907F906F905F904F9081
:101770000895A0E0B0E0EFEBFBE00C94450FEC0126
:101780007B016115710519F0DB018D939C938E012E
:101790000F5F1F4F7880872D90E00E94F40D892BFA
:1017A00011F0E801F4CFBDE27B1205C00F5F1F4FBF
:1017B0007980C1E008C0EBE27E1204C08E010E5FAA
:1017C0001F4F7980C0E06801F1E0CF1AD10843E0F3
:1017D00050E060E770E0C6010E94FC0D892BF1F437
:1017E000680122E0C20ED11C45E050E06BE670E0DB
:1017F000C6010E94FC0D892B21F4680187E0C80E08
:10180000D11CE114F10419F0D701CD92DC92C11181
:1018100005C160E070E080E89FE709C143E050E067
:1018200068E670E0C6010E94FC0D892B51F4E114BA
:10183000F10409F4F8C00E5F1F4FF7011183008314
:10184000F2C0680160E070E0CB0100E010E0F6015A
:10185000D0EDD70DDA3058F52C2F2260622E2C2FC8
:101860002870C2FF05C0211128C00F5F1F4F25C07F
:10187000222311F001501109A5E0B0E09B01AC0159
:101880000E9431064B015C01880C991CAA1CBB1CF0
:10189000C501B4016D0F711D811D911D6839A9E944
:1018A0007A078A07A9E19A0740F0C66005C0DE3FC3
:1018B00051F4C3FD44C0C8606C2EBFEFCB1ADB0AE5
:1018C0007080C62DC4CF2D2F2F7D2531C1F54081CD
:1018D0004D3211F4C06106C04B3221F0319621E047
:1018E00030E006C03296D60111964C9122E030E0ED
:1018F000A0EDA40FAA3018F0E21BF30B20C040E0CB
:1019000050E04038BCE05B075CF49A01220F331FC3
:10191000220F331F420F531F440F551F4A0F511DF3
:101920003196DF0111972C91A0EDA20FAA3048F358
:10193000C4FF03C0519541955109040F151FC1FF04
:1019400007C0E114F10421F03197D701ED93FC9326
:101950000E945907C370C33019F06B017C0106C0A7
:101960006B017C01F7FAF094F7F8F09420E030E096
:10197000A901C701B6010E94B50E882309F44BC026
:1019800017FF06C0119501951109C7E8D0E002C004
:10199000CFE9D0E05E01B8E1AB1AB1089C2CBD2DB7
:1019A000AE2D8F2C90E2E92EF12CFE014590559042
:1019B000659074900E151F057CF0A3019201692DAE
:1019C0007B2F8A2F982D0E94DD0E962EB72FA82FE1
:1019D000892E0E191F09EECF2497F594E794CA15A6
:1019E000DB0519F7C92CDB2EEA2EF82C8E2D880F7B
:1019F0008F2D881F8F3F49F020E030E0A901C701FB
:101A0000B6010E94B50E811106C082E290E090936B
:101A10003A0680933906C701B60109C060E070E05C
:101A200080E89FEF04C060E070E080EC9FE7CDB7F6
:101A3000DEB7E0E10C94610F283008F027E033278F
:101A4000DA01990F311D87FD9160009661057105DE
:101A500039F432602E5F3D9330E32A95E1F7089523
:101A60009F3F30F080387105610509F03C5F3C5FB5
:101A70003D93913008F08068911DDF93CF931F93C1
:101A80000F93FF92EF92192F987F9695E92F9695D5
:101A90009695E90FFF27E350FF4F99273327EE2450
:101AA000FF24A701E70105900894079428F4360F56
:101AB000E71EF81E491F511D660F771F881F991FCB
:101AC0000694A1F70590079428F4E70EF81E491F25
:101AD000561FC11D770F881F991F661F0694A1F717
:101AE0000590079428F4F80E491F561FC71FD11DF3
:101AF000880F991F661F771F0694A1F7059007941A
:101B000020F4490F561FC71FD81F990F661F771F54
:101B1000881F0694A9F784911095177041F0D69507
:101B2000C79557954795F794E7941A95C1F7E3EA57
:101B3000F0E0689415901591359165919591059017
:101B40007FE27395E118F10A430B560BC90BD009DC
:101B5000C0F7E10CF11E431F561FC91FD01D7EF4B4
:101B6000703311F48A95E6CFE894015030F0080FF5
:101B70000AF40027021708F4202F2395022F7A3346
:101B800028F079E37D932A95E9F710C07D932A9593
:101B900089F6069497956795379517951794E118E8
:101BA000F10A430B560BC90BD00998F023957E918F
:101BB00073957A3308F070E37C932013B8F77E9125
:101BC00070617D9330F0839571E37D9370E32A9586
:101BD000E1F71124EF90FF900F911F91CF91DF91CA
:101BE000992787FD9095089591114AC1803219F087
:101BF00089508550D0F70895FB01DC0141505040D9
:101C000088F08D9181341CF08B350CF4805E6591E9
:101C100061341CF06B350CF4605E861B611171F34E
:101C2000990B0895881BFCCFFC0105906150704012
:101C30000110D8F7809590958E0F9F1F08950F93F0
:101C40001F93CF93DF93FB01238121FD03C08FEF0F
:101C50009FEF28C022FF16C046815781248135811D
:101C60004217530744F4A081B1819D012F5F3F4F7C
:101C7000318320838C93268137812F5F3F4F3783B9
:101C8000268310C0EB01092F182F0084F185E02D69
:101C90000995892BE1F68E819F8101969F838E8322
:101CA000812F902FDF91CF911F910F910895FA010D
:101CB000AA27283051F1203181F1E8946F936E7F8B
:101CC0006E5F7F4F8F4F9F4FAF4FB1E03ED0B4E07C
:101CD0003CD0670F781F891F9A1FA11D680F791FBD
:101CE0008A1F911DA11D6A0F711D811D911DA11DCE
:101CF00020D009F468943F912AE0269F11243019DE
:101D0000305D3193DEF6CF010895462F4770405D78
:101D10004193B3E00FD0C9F7F6CF462F4F70405D27
:101D20004A3318F0495D31FD4052419302D0A9F782
:101D3000EACFB4E0A6959795879577956795BA957C
:101D4000C9F700976105710508959B01AC010A2E42
:101D500006945795479537952795BA95C9F7620F19
:101D6000731F841F951FA01D089503D008F481E000
:101D70000895990F0008550FAA0BE0E8FEEF16161C
:101D80001706E807F907C0F012161306E407F5076F
:101D900098F0621B730B840B950B39F40A2661F0E3
:101DA000232B242B252B21F408950A2609F4A14086
:101DB000A6958FEF811D811D08950BD0CEC8BFD889
:101DC00028F0C4D818F0952309F0B0C8B5C811247C
:101DD000F8C8D4D8A0F3959FD1F3950F50E0551FC4
:101DE000629FF001729FBB27F00DB11D639FAA2770
:101DF000F00DB11DAA1F649F6627B00DA11D661FBF
:101E0000829F2227B00DA11D621F739FB00DA11DDF
:101E1000621F839FA00D611D221F749F3327A00D99
:101E2000611D231F849F600D211D822F762F6A2F35
:101E300011249F5750408AF0E1F088234AF0EE0FBA
:101E4000FF1FBB1F661F771F881F91505040A9F7C7
:101E50009E3F510570F06AC8B4C85F3FECF3983EEE
:101E6000DCF3869577956795B795F795E7959F5F2E
:101E7000C1F7FE2B880F911D9695879597F90895C8
:101E80009927882708952F923F924F925F926F92E1
:101E90007F928F929F92AF92BF92CF92DF92EF92FA
:101EA000FF920F931F93CF93DF93CDB7DEB7CA1B7B
:101EB000DB0B0FB6F894DEBF0FBECDBF09942A88A6
:101EC000398848885F846E847D848C849B84AA844E
:101ED000B984C884DF80EE80FD800C811B81AA81DB
:101EE000B981CE0FD11D0FB6F894DEBF0FBECDBFA6
:081EF000ED010895F894FFCF05
:101EF800523152315231004B44385A5243000A0091
:101F08003A000100FF000400000001010102020381
:101F18000303040405050506060707070808090959
:101F2800090A0A0A0B0B0C0C0C0D0D0E0E0E0F0FE6
:101F38001010101111121212131313141415151571
:101F4800161617171718181819191A1A1A1B1B1CFE
:101F58001C1C1D1D1D1E1E1F1F1F2020212121228C
:101F6800222223232424242525252626272727281B
:101F7800282829292A2A2A2B2B2B2C2C2C2D2D2EAC
:101F88002E2E2F2F2F30303031313232323333333F
:101F980034343435353636363737373838383939D2
:101FA800393A3A3A3B3B3B3C3C3D3D3D3E3E3E3F69
:101FB8003F3F404040414141424242434343444401
:101FC800444545454646464747474848484949499C
:101FD8004A4A4A4A4B4B4B4C4C4C4D4D4D4E4E4E3B
:101FE8004F4F4F4F505050515151525252535353DB
:101FF8005354545455555555565656575757575880
:102008005858595959595A5A5A5B5B5B5B5C5C5C26
:102018005C5D5D5D5E5E5E5E5F5F5F5F60606060D1
:102028006161616162626262636363636464646480
:102038006565656566666666676767676768686831
:102048006869696969696A6A6A6A6B6B6B6B6B6CE8
:102058006C6C6C6C6D6D6D6D6D6E6E6E6E6E6F6FA3
:102068006F6F6F7070707070717171717171727261
:102078007272727373737373737474747474747523
:1020880075757575757576767676767676777777EB
:1020980077777777787878787878787979797979B7
:1020A8007979797A7A7A7A7A7A7A7A7A7B7B7B7B87
:1020B8007B7B7B7B7B7B7C7C7C7C7C7C7C7C7C7C5E
:1020C8007C7D7D7D7D7D7D7D7D7D7D7D7D7D7E7E37
:1020D8007E7E7E7E7E7E7E7E7E7E7E7E7E7E7E7F17
:1020E8007F7F7F7F7F7F7F7F7F7F7F7F7F7F7F7FF8
:1020F8007F7F7F7F7F7F7F7F7F7F7F7F7F7F7F7FE8
:102108007F7F7F7F7F7F7F7F7F7F7F7F7F7F7F7FD7
:102118007F7F7F7F7F7F7F7F7F7F7F7F7F7F7F7FC7
:102128007F7F7F7F7F7F7F7F7F7F7F7F7F7F7F7FB7
:102138007E7E7E7E7E7E7E7E7E7E7E7E7E7E7E7EB7
:102148007E7D7D7D7D7D7D7D7D7D7D7D7D7D7C7CB8
:102158007C7C7C7C7C7C7C7C7C7B7B7B7B7B7B7BBE
:102168007B7B7B7A7A7A7A7A7A7A7A7A79797979C8
:1021780079797979787878787878787777777777D8
:1021880077777676767676767675757575757575EC
:102198007474747474747373737373737272727205
:1021A8007271717171717170707070706F6F6F6F23
:1021B8006F6E6E6E6E6E6D6D6D6D6D6C6C6C6C6C45
:1021C8006B6B6B6B6B6A6A6A6A696969696968686B
:1021D8006868676767676766666666656565656494
:1021E80064646463636363626262626161616160C3
:1021F8006060605F5F5F5F5E5E5E5E5D5D5D5C5CF4
:102208005C5C5B5B5B5B5A5A5A5959595958585828
:102218005757575756565655555555545454535362
:1022280053535252525151515050504F4F4F4F4E9D
:102238004E4E4D4D4D4C4C4C4B4B4B4A4A4A4A49DD
:10224800494948484847474746464645454544441E
:10225800444343434242424141414040403F3F3F63
:102268003E3E3E3D3D3D3C3C3B3B3B3A3A3A3939AC
:1022780039383838373737363636353534343433F5
:10228800333332323231313030302F2F2F2E2E2E41
:102298002D2D2C2C2C2B2B2B2A2A2A29292828288F
:1022A80027272726262525252424242323222222DE
:1022B80021212120201F1F1F1E1E1D1D1D1C1C1C2F
:1022C8001B1B1A1A1A191918181817171716161582
:1022D8001515141413131312121211111010100FD4
:1022E8000F0E0E0E0D0D0C0C0C0B0B0A0A0A090929
:1022F800090808070707060605050504040303037C
:102308000202010101000000041D19100A01151C38
:102318000C030D181412160B051A1E0911170E0FAF
:1023280013060702081B1F002051574552545955E0
:10233800494F504153444647484A4B4C5A584356D4
:10234800424E4D0D0A002031323334353637383994
:10235800302D0724212623272829222F3A3B3F2CDA
:0C2368002E0D0A25640025303468580052
:00000001FF
